:020000040800F2
:100000007806002089010008AF060008B505000841
:10001000AD06000843020008BB060008000000000F
:10002000000000000000000000000000B30600080F
:100030004502000800000000B1060008B5060008EF
:10004000A3010008A3010008A3010008A301000800
:10005000A3010008A3010008A3010008A3010008F0
:10006000A3010008A3010008A3010008A3010008E0
:10007000A3010008A3010008A3010008A3010008D0
:10008000A3010008A3010008A3010008A3010008C0
:10009000A3010008A3010008A3010008A3010008B0
:1000A000A3010008A3010008A3010008A3010008A0
:1000B000A3010008A3010008A3010008A301000890
:1000C000A3010008A3010008A3010008A301000880
:1000D000A3010008A3010008A3010008A301000870
:1000E000A3010008A3010008A301000800F002F822
:1000F00000F03AF80AA090E8000C82448344AAF188
:100100000107DA4501D100F02FF8AFF2090EBAE885
:100110000F0013F0010F18BFFB1A43F0010318473B
:100120002C0600004C060000103A24BF78C878C1A5
:10013000FAD8520724BF30C830C144BF04680C60ED
:10014000704700000023002400250026103A28BF35
:1001500078C1FBD8520728BF30C148BF0B60704739
:100160001FB51FBD10B510BD00F031F81146FFF7E7
:10017000F7FF00F0B3FA00F04FF803B4FFF7F2FF17
:1001800003BC00F057F800000948804709480047C1
:10019000FEE7FEE7FEE7FEE7FEE7FEE7FEE7FEE737
:1001A000FEE7FEE704480549054A064B7047000094
:1001B000B9060008ED00000878000020780600204D
:1001C000780200207802002070477047704775461B
:1001D00000F02CF8AE4605006946534620F00700B3
:1001E000854618B020B5FFF7DDFFBDE820404FF091
:1001F00000064FF000074FF000084FF0000B21F011
:100200000701AC46ACE8C009ACE8C009ACE8C009DD
:10021000ACE8C0098D46704710B50446AFF30080C6
:100220002046BDE81040FFF7A8BF00000048704717
:100230001400002001491820ABBEFEE72600020092
:100240007047FEE77047000070B5044600F010F9F3
:100250000546601C02D004480078044400F008F908
:10026000401BA042FAD370BD040000202DE9F84FD6
:10027000DFF8B891002409F1040A0AF1040B2346BF
:100280000F270BF1040EC9E00125A5402A40AA4220
:100290007DD1674ED1F804C0ACEB0608B44532D02E
:1002A00014DCBCF1030F3AD009DCBCF1000F2AD0FA
:1002B000BCF1010F1CD0BCF1020F31D11DE0BCF12B
:1002C000110F17D0BCF1120F2AD119E0B8F5881F11
:1002D00019D006DCB8F5803F15D0B8F5801F1FD1C6
:1002E00011E0B8F5001F0ED0B8F5041F18D10AE0D0
:1002F000CB6815E0CB681B1D12E0CB6808330FE01C
:10030000CB680C330CE08B682BB1012B4FF008034A
:1003100003D0456104E0042302E0056100E000230E
:10032000FF2A01D8064601E000F104064FEA8405E1
:1003300001D9A5F12005D6F8008007FA05FC28EAC6
:100340000C0803FA05F548EA0508C6F800804D6870
:10035000ED0062D5374DAE6946F00106AE61AD697C
:1003600024F0030605F001050095334D06EB050C5E
:10037000DCF80850A607360F07FA06F825EA080544
:10038000DFF8B880404503D14FF0000817E044E0A3
:10039000DFF8AC80404502D14FF001080FE0DFF8F4
:1003A000A480404502D14FF0020808E0DFF89880B1
:1003B000404502D14FF0030801E04FF0040808FA6D
:1003C00006F848EA0508CCF808804D68D9F80060BE
:1003D000ED034D4601D5164300E096432E604D686F
:1003E000DAF80060AD03554601D5164300E09643A8
:1003F0002E604D68DBF80060ED025D4601D51643C6
:1004000000E096432E604D68DEF80060AD02754650
:1004100001D5164300E096432E60641C0D682A4601
:10042000E5407FF431AFBDE8F88F000000040140E3
:1004300000001110001002400000014000080140BF
:10044000000C014000100140001401408068084089
:1004500000D001207047C26821EA02030A4043EA43
:100460000241016170470AB1016170470904FBE76D
:10047000014880687047000004000020024881683D
:10048000027811448160704704000020074810B5CD
:10049000016841F010010160032000F065F80F20B1
:1004A00000F006F800F024F8002010BD0020024003
:1004B00070B50D4D04464FF47A712878B1FBF0F019
:1004C0000A490968B1FBF0F000F060F848B9102C57
:1004D00007D200222146501E00F026F800206C6052
:1004E00070BD012070BD000004000020100000203D
:1004F0000B4808B5816941F001018161816901F012
:1005000001010091C16941F08051C161C06900F0F1
:10051000805000900348416821F0E061416008BDCF
:100520000010024000000140F0B40E4B1B680C4666
:10053000C3F30223C3F10705042D00D90425191DB7
:10054000072901D2002300E0DB1E012606FA05F18F
:10055000491E214099409E40761E16403143F0BC12
:1005600000F0ACB80CED00E0064900F007020868A6
:100570004FF6FF03184040EA0220034A1043086088
:10058000704700000CED00E00000FA0510B5401EB9
:10059000B0F1807F01D3012010BD4FF0E0246061F5
:1005A0000F21601700F08AF80020A0610720206169
:1005B000002010BDFEE7000070B5144C012120465C
:1005C000FFF744FF124D60B901212046FFF73EFFBF
:1005D00038B901212046FFF739FF0028F9D0012062
:1005E000287020212046FFF731FF60B920212046E6
:1005F000FFF72CFF38B920212046FFF727FF0028FE
:10060000F9D002202870287870BD00000008014051
:10061000000000202DE9F04385B00024204800941C
:10062000019402940394816941F00401816181691C
:1006300001F004010491816941F008018161806940
:10064000DFF8608000F00800049000221E21404680
:10065000FFF709FFDFF850904FF48077002239460A
:100660004846FFF700FF212001258DE8310069464B
:100670004046FFF7FBFD1E200326CDE90005CDE92E
:10068000024669464046FFF7F1FD00970396CDE923
:10069000015469464846FFF7E9FD05B0BDE8F0831F
:1006A0000010024000080140000C0140FEE7FEE798
:1006B00070477047FFF7E2BE7047FEE70907090E73
:1006C000002804DB00F1E02080F80014704700F0FF
:1006D0000F0000F1E02080F8141D7047FFF7D6FEF0
:1006E000FFF798FFDFF85890164C174F4FF00008AF
:1006F0004FF480764FF4FA7587F80080FFF75CFFBF
:10070000012803D11E214846FFF7A5FEFFF754FF3D
:100710000228F1D10FE0012231462046FFF7A3FE67
:100720002846FFF791FD002231462046FFF79BFE49
:100730002846FFF789FD7878401E7870DCD3EAE719
:1007400000080140000C0140000000206C07000878
:1007500000000020140000002801000880070008A5
:100760001400002064060000440100080005000099
:100770000100000010000000000000000024F40050
:04000005080000ED02
:00000001FF
