:020000040800F2
:100000008806002089010008BD0A0008B90A000816
:10001000BB0A0008A7020008030B0008000000004C
:10002000000000000000000000000000C10A0008FD
:10003000A902000800000000BF0A0008C30A000867
:10004000A3010008A3010008A3010008A301000800
:10005000A3010008A3010008A3010008A3010008F0
:10006000A3010008A3010008A3010008A3010008E0
:10007000A3010008A3010008A3010008A3010008D0
:10008000A3010008A3010008A3010008A3010008C0
:10009000A3010008A3010008A3010008A3010008B0
:1000A000A3010008A3010008A3010008A3010008A0
:1000B000A3010008A3010008A3010008A301000890
:1000C000A3010008A3010008A3010008A301000880
:1000D000A3010008A3010008A3010008A301000870
:1000E000A3010008A3010008A301000800F002F822
:1000F00000F03AF80AA090E8000C82448344AAF188
:100100000107DA4501D100F02FF8AFF2090EBAE885
:100110000F0013F0010F18BFFB1A43F0010318473B
:100120004C0C00006C0C0000103A24BF78C878C159
:10013000FAD8520724BF30C830C144BF04680C60ED
:10014000704700000023002400250026103A28BF35
:1001500078C1FBD8520728BF30C148BF0B60704739
:100160001FB51FBD10B510BD00F063F81146FFF7B5
:10017000F7FF00F0C3FD00F081F803B4FFF7F2FFD2
:1001800003BC00F089F8000009488047094800478F
:10019000FEE7FEE7FEE7FEE7FEE7FEE7FEE7FEE737
:1001A000FEE7FEE704480549054A064B7047000094
:1001B000010B0008ED0000088800002088060020E0
:1001C000880200208802002010B5203AC0F00B8081
:1001D000B1E81850203AA0E81850B1E81850A0E84B
:1001E0001850BFF4F5AF5FEA027C24BFB1E81850A5
:1001F000A0E8185044BF18C918C0BDE810405FEA15
:10020000827C24BF51F8043B40F8043B08BF704790
:10021000D20728BF31F8023B48BF11F8012B28BF95
:1002200020F8023B48BF00F8012B70477047704729
:100230007047754600F02CF8AE46050069465346F7
:1002400020F00700854618B020B5FFF7ABFFBDE8EA
:1002500020404FF000064FF000074FF000084FF02D
:10026000000B21F00701AC46ACE8C009ACE8C009BE
:10027000ACE8C009ACE8C0098D46704710B504462B
:10028000AFF300802046BDE81040FFF776BF0000C6
:10029000004870472400002001491820ABBEFEE74B
:1002A000260002007047FEE77047000070B5044664
:1002B00000F004F90546601C02D0044800780444AC
:1002C00000F0FCF8401BA042FAD370BD04000020EF
:1002D0002DE9F84FDFF8B891002409F1040A0AF17A
:1002E000040B23460F270BF1040EC9E00125A5409E
:1002F0002A40AA427DD1674ED1F804C0ACEB060873
:10030000B44532D014DCBCF1030F3AD009DCBCF1A7
:10031000000F2AD0BCF1010F1CD0BCF1020F31D16B
:100320001DE0BCF1110F17D0BCF1120F2AD119E05A
:10033000B8F5881F19D006DCB8F5803F15D0B8F5A0
:10034000801F1FD111E0B8F5001F0ED0B8F5041FB3
:1003500018D10AE0CB6815E0CB681B1D12E0CB6812
:1003600008330FE0CB680C330CE08B682BB1012B0A
:100370004FF0080303D0456104E0042302E0056167
:1003800000E00023FF2A01D8064601E000F1040640
:100390004FEA840501D9A5F12005D6F8008007FAB7
:1003A00005FC28EA0C0803FA05F548EA0508C6F832
:1003B00000804D68ED0062D5374DAE6946F001060C
:1003C000AE61AD6924F0030605F001050095334DDB
:1003D00006EB050CDCF80850A607360F07FA06F8FE
:1003E00025EA0805DFF8B880404503D14FF0000842
:1003F00017E044E0DFF8AC80404502D14FF001083F
:100400000FE0DFF8A480404502D14FF0020808E079
:10041000DFF89880404502D14FF0030801E04FF02B
:10042000040808FA06F848EA0508CCF808804D6880
:10043000D9F80060ED034D4601D5164300E0964320
:100440002E604D68DAF80060AD03554601D51643BD
:1004500000E096432E604D68DBF80060ED025D46DB
:1004600001D5164300E096432E604D68DEF800602B
:10047000AD02754601D5164300E096432E60641C1C
:100480000D682A46E5407FF431AFBDE8F88F0000E3
:100490000004014000001110001002400000014063
:1004A00000080140000C0140001001400014014010
:1004B0000AB1016170470904FBE700000148806848
:1004C000704700000400002002488168027811444F
:1004D0008160704704000020074810B5016841F0B2
:1004E00010010160032000F065F80F2000F006F80D
:1004F00000F024F8002010BD0020024070B50D4D22
:1005000004464FF47A712878B1FBF0F00A49096883
:10051000B1FBF0F000F0BCFA48B9102C07D2002271
:100520002146501E00F026F800206C6070BD0120AE
:1005300070BD000004000020100000200B4808B52A
:10054000816941F001018161816901F0010100913E
:10055000C16941F08051C161C06900F080500090D4
:100560000348416821F0E061416008BD001002408D
:1005700000000140F0B40E4B1B680C46C3F302238D
:10058000C3F10705042D00D90425191D072901D23F
:10059000002300E0DB1E012606FA05F1491E21407A
:1005A00099409E40761E16403143F0BC00F096BB49
:1005B0000CED00E0064900F0070208684FF6FF0363
:1005C000184040EA0220034A1043086070470000C8
:1005D0000CED00E00000FA052DE9F0470F4605009C
:1005E00061D0434E306800F00700B84209D230684D
:1005F00020F0070038433060306800F00700B84250
:1006000051D128683B4C810712D5400703D560685B
:1006100040F4E06060602878000703D5606840F42B
:10062000605060606068A96820F0F0000843606076
:100630002878C00728D06868012810D021680228CF
:1006400010D0890700292EDA616821F003010143E7
:100650006160FFF733FF804641F288390DE0216881
:100660008903EFE78901EDE7FFF728FFA0EB080119
:10067000494502D90320BDE8F0876068696800F049
:100680000C00B0EB810FEFD1306800F00700B842EA
:100690000BD9306820F0070038433060306800F034
:1006A0000700B84201D00120E5E72878400705D5CA
:1006B0006068E96820F4E06008436060287800071B
:1006C00006D56068296920F4605040EAC100606086
:1006D00000F018F86168084AC1F30311515CC84082
:1006E0000649086006480068FFF708FF0020C2E7D7
:1006F00000200240001002405A0D000810000020A7
:100700000800002012A185B00FC98DE80F0014A0C9
:10071000144A006804905168134801F00C03042B3C
:1007200010D0082B0ED1C1F38343C9031DF8030079
:100730000AD5516804AAC1F34041515C0A4A5043AA
:10074000B0FBF1F005B0704708494843FAE70000F4
:1007500002030405060708090A0B0C0D0E0F101002
:10076000010200000010024000127A0000093D0062
:100770002DE9F84F040070D02078C04DC00749D053
:100780006868C0F38100012807D06868C0F3810061
:10079000022809D16868C00306D52868800339D5C6
:1007A00060680028E7D035E06068B0F5803F0BD086
:1007B00010B1B0F5A02F11D0286820F48030286047
:1007C000286820F4802002E0286840F48030286007
:1007D000606890B1FFF772FE06460AE0286840F4B0
:1007E00080202860F0E700BFFFF768FE801B6428C8
:1007F00073D828688003F7D50CE0FFF75FFE064644
:1008000005E000BFFFF75AFE801B6428F0D8286877
:100810008003F7D420789A4E80074FF001094FF0FB
:10082000000839D5686810F00C0F07D06868C0F36D
:100830008100022809D16868C00306D428688007AF
:1008400014D52069012808D110E02069B0B1C6F89C
:100850000090FFF733FE074605E00AE1FFF72EFEA2
:10086000C01B0228C4D828688007F7D528686169AA
:1008700020F0F80040EAC10028600DE0C6F80080D2
:10088000FFF71CFE074604E0FFF718FEC01B022816
:1008900023D828688007F7D4207800072CD579481A
:1008A000A169D9B1C0F80090FFF708FE074604E03F
:1008B000FFF704FEC01B02280FD8686A8007F7D52F
:1008C00071484FF4FA510068B0FBF1F0009000BF9E
:1008D0000098411E0091FAD20EE080E0C0F800803E
:1008E000FFF7ECFD074604E0FFF7E8FDC01B022818
:1008F00075D8686A8007F7D42078400760D5E86922
:100900000027C00008D4E86940F08050E861E86939
:10091000012700F0805000905C480168C90513D49D
:100920000168834641F480710160FFF7C7FD82468C
:1009300006E000BFFFF7C2FDA0EB0A0064284ED816
:10094000DBF80000C005F5D5E06801280AD008B141
:10095000052813D0286A20F001002862286A20F0B8
:10096000040002E0286A40F001002862E06841F2D9
:10097000883B98B1FFF7A2FD82460BE0286A40F061
:1009800004002862EEE700BFFFF798FDA0EB0A0124
:1009900059455AD8286A8007F6D50CE0FFF78EFD36
:1009A000824605E0FFF78AFDA0EB0A0159454CD8C5
:1009B000286A8007F6D41FB1E86920F08050E8610A
:1009C000E06988B36968C1F38101022944D0022833
:1009D000C6F8608004D0FFF771FD044638E034E0CB
:1009E000FFF76CFD074604E0FFF768FDC01B022817
:1009F0002BD828688001F7D4206AB0F5803F05D154
:100A00006868A16820F4003008436860D4E90801F0
:100A10000843696821F4741108436860C6F860905F
:100A2000FFF74CFD044606E025E000BFFFF746FD5A
:100A3000001B022809D828688001F7D51BE000BFF9
:100A4000FFF73CFD001B022802D90320BDE8F88F08
:100A500028688001F4D40EE00128F7D06868226A83
:100A600000F48031914204D1616A00F47010884230
:100A700001D00120EAE70020E8E700000010024072
:100A800000004242800442421000002000700040FA
:100A900010B5401EB0F1807F01D3012010BD4FF092
:100AA000E02460610F21601700F018F90020A061B8
:100AB00007202061002010BDFEE7FEE7FEE770473B
:100AC0007047FFF701BD10B590B001200090000401
:100AD0004FF4E01102240190CDE908010794684623
:100AE000FFF746FE0D20CDE90A0400206102CDE9A2
:100AF0000C010E9002210AA8FFF76EFD10B010BD88
:100B00007047FEE730B50F4885B0816941F00401B8
:100B100081618069012200F004000B4D54020490B1
:100B200021462846FFF7C4FC0120CDE90040002003
:100B300002900320039069462846FFF7C9FB05B0E1
:100B400030BD000000100240000801402DE9F05FB8
:100B50000F46064600252A464FF400715748FFF716
:100B6000A7FC57484FF0A60A8146C0F800A000BF76
:100B70000168491EC9F80010491CF8D1DFF83CB1E2
:100B800000244FF0010800BF08FA04F0384206D0F4
:100B9000012251025846FFF78BFC6D1C05E0002234
:100BA0004FF400715846FFF783FC641C072CEBD30D
:100BB000D0464C46C9F800A000BF2068401E206007
:100BC000401CF9D1306808B97068D8B9380606D524
:100BD000012251025846FFF76BFC6D1C05E0002214
:100BE0004FF400715846FFF763FCC4F8008000BF63
:100BF0002068401E2060401CF9D13068012801D1D6
:100C0000706860B3F80506D5012251025846FFF717
:100C10004FFC6D1C05E000224FF400715846FFF7B1
:100C200047FC4746C4F8008000BF2068401E206093
:100C3000401CF9D1706801280ED1E80710D00022BD
:100C40004FF400715846FFF733FC276000BF20685F
:100C5000401E2060401CF9D17068022802D012E0CA
:100C60000122EDE7E80701D0012200E000224FF465
:100C700000715846FFF71CFC276000BF2068401E2B
:100C80002060401CF9D1012251025846FFF710FCA8
:100C90004046C4F8008000BF2168491E2160491CFD
:100CA000F9D1B168012900D1206000BF2068401E41
:100CB0002060401CF9D1BDE8F09F00000008014011
:100CC0000000002070B515460C46064634F8021B9D
:100CD0003046FFF73BFF6D1EF8D270BD0907090EC5
:100CE000002804DB00F1E02080F80014704700F0D9
:100CF0000F0000F1E02080F8141D704786B0182224
:100D00000E496846FFF760FAFFF7E6FBFFF7DBFEE8
:100D10000B484FF41651C1600021016081604160B1
:100D2000FFF7F0FE4FF4FA740B2269460448FFF710
:100D3000C9FF2046FFF7BAFAF6E70000440D0008A5
:100D400014000020480065006C006C006F0020005B
:100D500077006F0072006C0064000000000000006B
:100D60000000010203040607080900008C0D0008BA
:100D7000000000201400000028010008A00D000859
:100D80001400002074060000440100080000000068
:100D90000100000010000000000000000024F4002A
:04000005080000ED02
:00000001FF
