:020000040800F2
:100000007806002089010008FF060008890600081C
:10001000FD060008430200080B070008000000006E
:1000200000000000000000000000000003070008BE
:10003000450200080000000001070008050700084D
:10004000A3010008A3010008A3010008A301000800
:10005000A3010008A301000855020008A30100083D
:10006000A3010008A3010008A3010008A3010008E0
:10007000A3010008A3010008A3010008A3010008D0
:10008000A3010008A3010008A3010008A3010008C0
:10009000A3010008A3010008A3010008A3010008B0
:1000A000A3010008A3010008A3010008A3010008A0
:1000B000A3010008A3010008A3010008A301000890
:1000C000A3010008A3010008A3010008A301000880
:1000D000A3010008A3010008A3010008A301000870
:1000E000A3010008A3010008A301000800F002F822
:1000F00000F03AF80AA090E8000C82448344AAF188
:100100000107DA4501D100F02FF8AFF2090EBAE885
:100110000F0013F0010F18BFFB1A43F0010318473B
:100120006006000080060000103A24BF78C878C13D
:10013000FAD8520724BF30C830C144BF04680C60ED
:10014000704700000023002400250026103A28BF35
:1001500078C1FBD8520728BF30C148BF0B60704739
:100160001FB51FBD10B510BD00F031F81146FFF7E7
:10017000F7FF00F0DBFA00F04FF803B4FFF7F2FFEF
:1001800003BC00F057F800000948804709480047C1
:10019000FEE7FEE7FEE7FEE7FEE7FEE7FEE7FEE737
:1001A000FEE7FEE704480549054A064B7047000094
:1001B00009070008ED0000087800002078060020FC
:1001C000780200207802002070477047704775461B
:1001D00000F02CF8AE4605006946534620F00700B3
:1001E000854618B020B5FFF7DDFFBDE820404FF091
:1001F00000064FF000074FF000084FF0000B21F011
:100200000701AC46ACE8C009ACE8C009ACE8C009DD
:10021000ACE8C0098D46704710B50446AFF30080C6
:100220002046BDE81040FFF7A8BF00000048704717
:100230001800002001491820ABBEFEE7260002008E
:100240007047FEE7704700000221014800F064B9E2
:1002500000080140014800F003B800000000002041
:100260000178074B01F01F0101228A4019681142F1
:1002700004D01A604068002800D000477047000092
:10028000140401400346002009B1012070475A6060
:100290007047000030B580B179B10A6802600B6820
:1002A000012003F01F0290409B0126D50B7ADC074A
:1002B0001C4B1C6803D0044302E0012030BD844382
:1002C0001C600B7A9C07184B1C6801D5044300E0A6
:1002D00084431C600B68C3F34163032B0DD1134BA4
:1002E00022F003041C44A3689207150F0F22AA40B2
:1002F0009343CA68AA401A43A2600A79D3070C4AFA
:10030000136801D0034300E08343136009798A072F
:1003100008490A6801D5024300E082430A600020D0
:1003200030BD0000080401400C0401400000014001
:1003300000040140040401402DE9F84FDFF8B891B2
:10034000002409F1040A0AF1040B23460F270BF1DC
:10035000040EC9E00125A5402A40AA427DD1674E7E
:10036000D1F804C0ACEB0608B44532D014DCBCF1C3
:10037000030F3AD009DCBCF1000F2AD0BCF1010F09
:100380001CD0BCF1020F31D11DE0BCF1110F17D010
:10039000BCF1120F2AD119E0B8F5881F19D006DC7C
:1003A000B8F5803F15D0B8F5801F1FD111E0B8F522
:1003B000001F0ED0B8F5041F18D10AE0CB6815E075
:1003C000CB681B1D12E0CB6808330FE0CB680C3301
:1003D0000CE08B682BB1012B4FF0080303D0456173
:1003E00004E0042302E0056100E00023FF2A01D8B5
:1003F000064601E000F104064FEA840501D9A5F1A3
:100400002005D6F8008007FA05FC28EA0C0803FA54
:1004100005F548EA0508C6F800804D68ED0062D58C
:10042000374DAE6946F00106AE61AD6924F00306B2
:1004300005F001050095334D06EB050CDCF808507E
:10044000A607360F07FA06F825EA0805DFF8B88090
:10045000404503D14FF0000817E044E0DFF8AC80DE
:10046000404502D14FF001080FE0DFF8A48040457D
:1004700002D14FF0020808E0DFF89880404502D131
:100480004FF0030801E04FF0040808FA06F848EAC4
:100490000508CCF808804D68D9F80060ED034D469A
:1004A00001D5164300E096432E604D68DAF80060EF
:1004B000AD03554601D5164300E096432E604D68C6
:1004C000DBF80060ED025D4601D5164300E096437F
:1004D0002E604D68DEF80060AD02754601D516430A
:1004E00000E096432E60641C0D682A46E5407FF4C8
:1004F00031AFBDE8F88F000000040140000011108A
:10050000001002400000014000080140000C0140C2
:100510000010014000140140C26821EA02030A40B1
:1005200043EA0241016170470AB101617047090461
:10053000FBE700000248816802781144816070473F
:1005400008000020074810B5016841F01001016063
:10055000032000F073F80F2000F006F800F024F8F4
:10056000002010BD0020024070B50D4D04464FF430
:100570007A712878B1FBF0F00A490968B1FBF0F014
:1005800000F06EF848B9102C07D200222146501E08
:1005900000F034F800206C6070BD012070BD0000D8
:1005A00008000020140000200B4808B5816941F0C4
:1005B00001018161816901F001010091C16941F08E
:1005C0008051C161C06900F08050009003484168CB
:1005D00021F0E061416008BD0010024000000140D0
:1005E000002809DB00F01F02012191404009800032
:1005F00000F1E020C0F8001170470000F0B40E4B8D
:100600001B680C46C3F30223C3F10705042D00D970
:100610000425191D072901D2002300E0DB1E012655
:1006200006FA05F1491E214099409E40761E16406B
:100630003143F0BC00F06AB80CED00E0064900F070
:10064000070208684FF6FF03184040EA0220034AF9
:1006500010430860704700000CED00E00000FA0550
:1006600010B5401EB0F1807F01D3012010BD4FF0C6
:10067000E02460610F21601700F048F80020A061BD
:1006800007202061002010BDFEE7000070B586B095
:10069000002517480095019502950395816941F061
:1006A00004018161816901F004010491816941F0D3
:1006B0000801816180690F4E00F00800049000225B
:1006C00002213046FFF730FF01240B486946CDE98F
:1006D000004030460294FFF72FFE02218DE83200E1
:1006E000039169463046FFF727FE06B070BD000053
:1006F000001002400008014000001110FEE7FEE774
:1007000070477047FFF716BF7047FEE70907090EED
:10071000002804DB00F1E02080F80014704700F0AE
:100720000F0000F1E02080F8141D704786B0FFF73D
:1007300009FFFFF7ABFF4FF0C06000900120019070
:100740000290002003900B48816941F00101816112
:100750008069694600F0010004900748FFF79AFDA0
:10076000064A00210448FFF78DFD0620FFF738FFF9
:10077000FEE70000001002400000002049020008CF
:10078000A007000800000020180000002801000851
:10079000B8070008180000206006000044010008A7
:1007A0000000000000000000010000001000000038
:0807B000000000000024F40029
:04000005080000ED02
:00000001FF
