:020000040800F2
:10000000B806002089010008A30C0008070C0008AE
:10001000A10C00087F020008110E0008000000007B
:10002000000000000000000000000000A70C000815
:100030008102000800000000A50C0008A90C0008BF
:10004000A3010008A3010008A3010008A301000800
:10005000A3010008A3010008A3010008A3010008F0
:10006000A3010008A3010008A3010008A3010008E0
:10007000A3010008A3010008A3010008A3010008D0
:10008000A3010008A3010008A3010008A3010008C0
:10009000A3010008A3010008A3010008A3010008B0
:1000A000A3010008A3010008A3010008A3010008A0
:1000B000A3010008A3010008A3010008A301000890
:1000C000A3010008A3010008A3010008A301000880
:1000D000A3010008A3010008A3010008A301000870
:1000E000A3010008A3010008A301000800F002F822
:1000F00000F03AF80AA090E8000C82448344AAF188
:100100000107DA4501D100F02FF8AFF2090EBAE885
:100110000F0013F0010F18BFFB1A43F0010318473B
:10012000740D0000940D0000103A24BF78C878C107
:10013000FAD8520724BF30C830C144BF04680C60ED
:10014000704700000023002400250026103A28BF35
:1001500078C1FBD8520728BF30C148BF0B60704739
:100160001FB51FBD10B510BD00F050F81146FFF7C8
:10017000F7FF00F05FFE00F06EF803B4FFF7F2FF48
:1001800003BC00F075F800000948804709480047A3
:10019000FEE7FEE7FEE7FEE7FEE7FEE7FEE7FEE737
:1001A000FEE7FEE704480549054A064B7047000094
:1001B000F10C0008ED000008B8000020B80600208F
:1001C000B8020020B802002010B5431C02E010F86D
:1001D000011B71B18107FAD14FF0013202C88C1AAC
:1001E0008C4314EAC211F9D0C01A0A0603D0C01E0B
:1001F00010BDC01A10BD0A0401D0801E10BD090236
:10020000FCD0401E10BD704770477047754600F027
:100210002BF8AE4605006946534620F00700854698
:1002200018B020B5FFF7BEFFBDE820404FF0000634
:100230004FF000074FF000084FF0000B21F00701CE
:10024000AC46ACE8C009ACE8C009ACE8C009ACE811
:10025000C0098D46704710B50446AFF300802046B4
:10026000BDE81040FFF789BF0048704754000020E8
:1002700001491820ABBEFEE7260002007047FEE7EA
:100280007047000072B6054C4FF4FA750121204604
:1002900000F008F9284600F003F8F7E700080140ED
:1002A00070B5044600F006F90546601C02D004480B
:1002B0000078044400F0FEF8401BA042FAD370BD61
:1002C000000000202DE9F84FDFF8B891002409F173
:1002D000040A0AF1040B23460F270BF1040EC9E0B0
:1002E0000125A5402A40AA427DD1674ED1F804C01D
:1002F000ACEB0608B44532D014DCBCF1030F3AD0A5
:1003000009DCBCF1000F2AD0BCF1010F1CD0BCF1FC
:10031000020F31D11DE0BCF1110F17D0BCF1120F4B
:100320002AD119E0B8F5881F19D006DCB8F5803F4E
:1003300015D0B8F5801F1FD111E0B8F5001F0ED001
:10034000B8F5041F18D10AE0CB6815E0CB681B1D77
:1003500012E0CB6808330FE0CB680C330CE08B68FD
:100360002BB1012B4FF0080303D0456104E00423B7
:1003700002E0056100E00023FF2A01D8064601E003
:1003800000F104064FEA840501D9A5F12005D6F84D
:10039000008007FA05FC28EA0C0803FA05F548EA8C
:1003A0000508C6F800804D68ED0062D5374DAE698E
:1003B00046F00106AE61AD6924F0030605F00105C3
:1003C0000095334D06EB050CDCF80850A607360FF8
:1003D00007FA06F825EA0805DFF8B880404503D19A
:1003E0004FF0000817E044E0DFF8AC80404502D150
:1003F0004FF001080FE0DFF8A480404502D14FF034
:10040000020808E0DFF89880404502D14FF0030869
:1004100001E04FF0040808FA06F848EA0508CCF8AD
:1004200008804D68D9F80060ED034D4601D51643AC
:1004300000E096432E604D68DAF80060AD03554643
:1004400001D5164300E096432E604D68DBF800604E
:10045000ED025D4601D5164300E096432E604D68DF
:10046000DEF80060AD02754601D5164300E0964304
:100470002E60641C0D682A46E5407FF431AFBDE86C
:10048000F88F00000004014000001110001002402D
:100490000000014000080140000C01400010014034
:1004A00000140140C26821EA02030A4043EA024103
:1004B000016170470148806870470000000000201B
:1004C0000248816802781144816070470000002072
:1004D000074810B5016841F010010160032000F0E9
:1004E00065F80F2000F006F800F024F8002010BD99
:1004F0000020024070B50D4D04464FF47A71287803
:10050000B1FBF0F00A490968B1FBF0F000F0DCFA49
:1005100048B9102C07D200222146501E00F026F8C0
:1005200000206C6070BD012070BD00000000002044
:100530000C0000200B4808B5816941F00101816180
:10054000816901F001010091C16941F08051C161EF
:10055000C06900F0805000900348416821F0E061DC
:10056000416008BD0010024000000140F0B40E4B95
:100570001B680C46C3F30223C3F10705042D00D901
:100580000425191D072901D2002300E0DB1E0126E6
:1005900006FA05F1491E214099409E40761E1640FC
:1005A0003143F0BC00F035BC0CED00E0064900F032
:1005B000070208684FF6FF03184040EA0220034A8A
:1005C00010430860704700000CED00E00000FA05E1
:1005D0002DE9F0470F46050061D0434E306800F02A
:1005E0000700B84209D2306820F007003843306075
:1005F000306800F00700B84251D128683B4C8107B1
:1006000012D5400703D5606840F4E0606060287848
:10061000000703D5606840F4605060606068A968B6
:1006200020F0F000084360602878C00728D0686890
:10063000012810D02168022810D0890700292EDA5D
:10064000616821F0030101436160FFF733FF8046D9
:1006500041F288390DE021688903EFE78901EDE770
:10066000FFF728FFA0EB0801494502D90320BDE8A8
:10067000F0876068696800F00C00B0EB810FEFD183
:10068000306800F00700B8420BD9306820F007004E
:1006900038433060306800F00700B84201D00120D4
:1006A000E5E72878400705D56068E96820F4E06050
:1006B000084360602878000706D56068296920F43F
:1006C000605040EAC100606000F038F86168084A94
:1006D000C1F30311515CC840064908600648006830
:1006E000FFF708FF0020C2E7002002400010024090
:1006F0007C0E00080C00002004000020044805497E
:1007000000684968044AC1F30221515CC84070473F
:100710000C000020001002408C0E0008044805491F
:1007200000684968044AC1F3C221515CC84070475F
:100730000C000020001002408C0E000812A185B0B1
:100740000FC98DE80F0014A0144A00680490516886
:10075000134801F00C03042B10D0082B0ED1C1F369
:100760008343C9031DF803000AD5516804AAC1F3E5
:100770004041515C0A4A5043B0FBF1F005B070476C
:1007800008494843FAE70000020304050607080980
:100790000A0B0C0D0E0F1010010200000010024099
:1007A00000127A0000093D002DE9F84F040070D0D6
:1007B0002078C04DC00749D06868C0F38100012887
:1007C00007D06868C0F38100022809D16868C003B7
:1007D00006D52868800339D560680028E7D035E061
:1007E0006068B0F5803F0BD010B1B0F5A02F11D0EC
:1007F000286820F480302860286820F4802002E0F7
:10080000286840F480302860606890B1FFF752FE9D
:1008100006460AE0286840F480202860F0E700BF20
:10082000FFF748FE801B642873D828688003F7D53B
:100830000CE0FFF73FFE064605E000BFFFF73AFE7B
:10084000801B6428F0D828688003F7D420789A4E5B
:1008500080074FF001094FF0000839D5686810F0A3
:100860000C0F07D06868C0F38100022809D16868BE
:10087000C00306D42868800714D52069012808D150
:1008800010E02069B0B1C6F80090FFF713FE0746EC
:1008900005E00AE1FFF70EFEC01B0228C4D8286855
:1008A0008007F7D52868616920F0F80040EAC100A8
:1008B00028600DE0C6F80080FFF7FCFD074604E065
:1008C000FFF7F8FDC01B022823D828688007F7D45B
:1008D000207800072CD57948A169D9B1C0F80090DB
:1008E000FFF7E8FD074604E0FFF7E4FDC01B022820
:1008F0000FD8686A8007F7D571484FF4FA5100683D
:10090000B0FBF1F0009000BF0098411E0091FAD2B8
:100910000EE080E0C0F80080FFF7CCFD074604E061
:10092000FFF7C8FDC01B022875D8686A8007F7D496
:100930002078400760D5E8690027C00008D4E8693E
:1009400040F08050E861E869012700F08050009095
:100950005C480168C90513D40168834641F480717D
:100960000160FFF7A7FD824606E000BFFFF7A2FD8A
:10097000A0EB0A0064284ED8DBF80000C005F5D5CE
:10098000E06801280AD008B1052813D0286A20F0B1
:1009900001002862286A20F0040002E0286A40F082
:1009A00001002862E06841F2883B98B1FFF782FDC0
:1009B00082460BE0286A40F004002862EEE700BFA0
:1009C000FFF778FDA0EB0A0159455AD8286A80073D
:1009D000F6D50CE0FFF76EFD824605E0FFF76AFDF5
:1009E000A0EB0A0159454CD8286A8007F6D41FB1FC
:1009F000E86920F08050E861E06988B36968C1F374
:100A00008101022944D00228C6F8608004D0FFF793
:100A100051FD044638E034E0FFF74CFD074604E0A2
:100A2000FFF748FDC01B02282BD828688001F7D4A7
:100A3000206AB0F5803F05D16868A16820F40030D5
:100A400008436860D4E908010843696821F4741117
:100A500008436860C6F86090FFF72CFD044606E086
:100A600025E000BFFFF726FD001B022809D82868F3
:100A70008001F7D51BE000BFFFF71CFD001B02281B
:100A800002D90320BDE8F88F28688001F4D40EE075
:100A90000128F7D06868226A00F48031914204D1BD
:100AA000616A00F47010884201D00120EAE700205A
:100AB000E8E7000000100240000042428004424289
:100AC0000C0000200070004010B5401EB0F1807F87
:100AD00001D3012010BD4FF0E02460610F216017A9
:100AE00000F097F90020A06107202061002010BDD0
:100AF00070B5040004D094F83D00002510B106E064
:100B0000012070BD84F83C50204600F022F82420DB
:100B100084F83D002068C16821F40051C16020467E
:100B200000F0E8F82068016921F490410161206833
:100B3000416921F02A0141612068C16841F40051F6
:100B4000C1602564202084F83D0084F83E00002028
:100B500070BD70472DE9F843044690F83D001F46EC
:100B600016460D4620284CD1C5B1BEB194F83C00C4
:100B7000012846D0012084F83C004FF00008C4F85A
:100B80004080212084F83D00FFF794FCA684814634
:100B9000E684A068B0F5805F03D004E00120BDE8E2
:100BA000F883206928B12E465FF0000584F83C8068
:100BB0000EE00026FAE78021204600F0F7F8A0B901
:100BC000AEB116F8010B21684860E08C401EE0844D
:100BD000E08C4B464FF0000200970028EBD14FF01D
:100BE0004001204600F0E2F830B10320D7E735F8A5
:100BF000020BC0F30800E6E7202084F83D00002047
:100C0000CDE70220CBE7FEE730B5214885B081690A
:100C100041F004018161816901F00401049181695D
:100C200041F008018161816901F008010491816945
:100C300041F4804181618069022400F48040049085
:100C40004FF40070CDE900040320124D0390694673
:100C50002846FFF737FB0120CDE9004069462846CA
:100C60000394FFF72FFB0D480B49016008214161F8
:100C70004FF4165141600021C16081600161C16182
:100C8000FFF736FF002801D0FFF7FCFA05B030BDB2
:100C90000010024000080140003801401000002010
:100CA000FEE7FEE770477047FFF70ABC10B590B04B
:100CB0000120009000044FF4E01102240190CDE9DE
:100CC000080107946846FFF76FFD68B90D20CDE96C
:100CD0000A0400206102CDE90C010E9002210AA84D
:100CE000FFF776FC002801D0FFF7CCFA10B010BD5A
:100CF0007047000070B5044600680169E26821F49D
:100D00004051114301612169A068084361690843AA
:100D10002168CA6841F20C639A430243CA602068A2
:100D20004169A26921F44071114341611E49206863
:100D3000884202D1FFF7F2FC01E0FFF7DFFC00EB95
:100D4000C00101EB0012606864218000B2FBF0F387
:100D5000B3FBF1F36FF018067343B2FBF0F5B2FB8F
:100D6000F0F605EB8305322303EB0515B5FBF1F532
:100D7000B6FBF1F605F0F00505EB0615B2FBF0F653
:100D8000B2FBF0F0B0FBF1F06FF01802504306EB4D
:100D9000800003EB0010B0FBF1F0216800F00F00C1
:100DA0002844886070BD0000003801402DE9F04102
:100DB000984617460E460446069D1DE0681C1BD04B
:100DC0002DB1FFF777FBA0EB0800A84214D92068EB
:100DD000C16821F4D071C1602068416921F001012E
:100DE0004161202084F83D0084F83E00002084F812
:100DF0003C000320BDE8F0812068006836EA00006E
:100E000004D00020B842D9D00020F3E70120F9E750
:100E1000FEE70907090E002804DB00F1E02080F856
:100E20000014704700F00F0000F1E02080F8141D5E
:100E3000704700000DA4FFF74BFB08B1FFF722FA43
:100E4000FFF734FFFFF7E0FE4FF0FF354FF47A76FF
:100E50002046FFF7B9F982B22B4621460648FFF734
:100E600079FE3046FFF71CFAF2E7000048656C6C2B
:100E70006F20776F726C640010000020000000008B
:100E8000000000000102030406070809000000003A
:100E900001020304B40E000800000020100000004E
:100EA00028010008C40E000810000020A806000059
:100EB00044010008010000001000000000000000D4
:040EC0000024F40016
:04000005080000ED02
:00000001FF
