:020000040800F2
:100000007806002089010008430B0008BD0A00089B
:10001000410B000843020008890B000800000000A3
:10002000000000000000000000000000470B000876
:100030004502000800000000450B0008490B0008BD
:10004000A3010008A3010008A3010008A301000800
:10005000A3010008A301000847020008A30100084B
:10006000A3010008A3010008A3010008A3010008E0
:10007000A3010008A3010008A3010008A3010008D0
:10008000A3010008A3010008A3010008A3010008C0
:10009000A3010008A3010008A3010008A3010008B0
:1000A000A3010008A3010008A3010008A3010008A0
:1000B000A3010008A3010008A3010008A301000890
:1000C000A3010008A3010008A3010008A301000880
:1000D000A3010008A3010008A3010008A301000870
:1000E000A3010008A3010008A301000800F002F822
:1000F00000F03AF80AA090E8000C82448344AAF188
:100100000107DA4501D100F02FF8AFF2090EBAE885
:100110000F0013F0010F18BFFB1A43F0010318473B
:10012000F80A0000180B0000103A24BF78C878C104
:10013000FAD8520724BF30C830C144BF04680C60ED
:10014000704700000023002400250026103A28BF35
:1001500078C1FBD8520728BF30C148BF0B60704739
:100160001FB51FBD10B510BD00F031F81146FFF7E7
:10017000F7FF00F01BFD00F04FF803B4FFF7F2FFAC
:1001800003BC00F057F800000948804709480047C1
:10019000FEE7FEE7FEE7FEE7FEE7FEE7FEE7FEE737
:1001A000FEE7FEE704480549054A064B7047000094
:1001B000870B0008ED00000878000020780600207A
:1001C000780200207802002070477047704775461B
:1001D00000F02CF8AE4605006946534620F00700B3
:1001E000854618B020B5FFF7DDFFBDE820404FF091
:1001F00000064FF000074FF000084FF0000B21F011
:100200000701AC46ACE8C009ACE8C009ACE8C009DD
:10021000ACE8C0098D46704710B50446AFF30080C6
:100220002046BDE81040FFF7A8BF00000048704717
:100230001400002001491820ABBEFEE72600020092
:100240007047FEE77047012000F022B870B5044601
:1002500000F028F90546601C02D0044800780444E8
:1002600000F020F9401BA042FAD370BD040000202A
:10027000054800220178491C01F0030101701E218C
:10028000024800F009B90000000000200008014009
:10029000044910B50A68024202D00860FFF7E8FF7F
:1002A00010BD0000140401402DE9F84FDFF8B891AB
:1002B000002409F1040A0AF1040B23460F270BF16D
:1002C000040EC9E00125A5402A40AA427DD1674E0F
:1002D000D1F804C0ACEB0608B44532D014DCBCF154
:1002E000030F3AD009DCBCF1000F2AD0BCF1010F9A
:1002F0001CD0BCF1020F31D11DE0BCF1110F17D0A1
:10030000BCF1120F2AD119E0B8F5881F19D006DC0C
:10031000B8F5803F15D0B8F5801F1FD111E0B8F5B2
:10032000001F0ED0B8F5041F18D10AE0CB6815E005
:10033000CB681B1D12E0CB6808330FE0CB680C3391
:100340000CE08B682BB1012B4FF0080303D0456103
:1003500004E0042302E0056100E00023FF2A01D845
:10036000064601E000F104064FEA840501D9A5F133
:100370002005D6F8008007FA05FC28EA0C0803FAE5
:1003800005F548EA0508C6F800804D68ED0062D51D
:10039000374DAE6946F00106AE61AD6924F0030643
:1003A00005F001050095334D06EB050CDCF808500F
:1003B000A607360F07FA06F825EA0805DFF8B88021
:1003C000404503D14FF0000817E044E0DFF8AC806F
:1003D000404502D14FF001080FE0DFF8A48040450E
:1003E00002D14FF0020808E0DFF89880404502D1C2
:1003F0004FF0030801E04FF0040808FA06F848EA55
:100400000508CCF808804D68D9F80060ED034D462A
:1004100001D5164300E096432E604D68DAF800607F
:10042000AD03554601D5164300E096432E604D6856
:10043000DBF80060ED025D4601D5164300E096430F
:100440002E604D68DEF80060AD02754601D516439A
:1004500000E096432E60641C0D682A46E5407FF458
:1004600031AFBDE8F88F000000040140000011101A
:10047000001002400000014000080140000C014053
:100480000010014000140140C26821EA02030A4042
:1004900043EA0241016170470AB1016170470904F2
:1004A000FBE700000148806870470000040000205E
:1004B000024881680278114481607047040000207E
:1004C000074810B5016841F010010160032000F0F9
:1004D00073F80F2000F006F800F024F8002010BD9B
:1004E0000020024070B50D4D04464FF47A71287813
:1004F000B1FBF0F00A490968B1FBF0F000F0CAFA6C
:1005000048B9102C07D200222146501E00F034F8C2
:1005100000206C6070BD012070BD00000400002050
:10052000100000200B4808B5816941F0010181618C
:10053000816901F001010091C16941F08051C161FF
:10054000C06900F0805000900348416821F0E061EC
:10055000416008BD0010024000000140002809DB96
:1005600000F01F02012191404009800000F1E020CD
:10057000C0F8001170470000F0B40E4B1B680C4629
:10058000C3F30223C3F10705042D00D90425191D67
:10059000072901D2002300E0DB1E012606FA05F13F
:1005A000491E214099409E40761E16403143F0BCC2
:1005B00000F0EBBA0CED00E0064900F00702086815
:1005C0004FF6FF03184040EA0220034A1043086038
:1005D000704700000CED00E00000FA052DE9F0473F
:1005E0000F46050061D0434E306800F00700B84266
:1005F00009D2306820F0070038433060306800F0DE
:100600000700B84251D128683B4C810712D54007FA
:1006100003D5606840F4E06060602878000703D587
:10062000606840F4605060606068A96820F0F00085
:10063000084360602878C00728D06868012810D077
:100640002168022810D0890700292EDA616821F07C
:10065000030101436160FFF725FF804641F28839BD
:100660000DE021688903EFE78901EDE7FFF71AFF45
:10067000A0EB0801494502D90320BDE8F087606876
:10068000696800F00C00B0EB810FEFD1306800F02A
:100690000700B8420BD9306820F0070038433060BB
:1006A000306800F00700B84201D00120E5E7287863
:1006B000400705D56068E96820F4E06008436060A1
:1006C0002878000706D56068296920F4605040EA60
:1006D000C100606000F018F86168084AC1F30311B6
:1006E000515CC8400649086006480068FFF7FAFEFA
:1006F0000020C2E70020024000100240080C000861
:10070000100000200800002012A185B00FC98DE85C
:100710000F0014A0144A006804905168134801F0B7
:100720000C03042B10D0082B0ED1C1F38343C90353
:100730001DF803000AD5516804AAC1F34041515C79
:100740000A4A5043B0FBF1F005B0704708494843EE
:10075000FAE7000002030405060708090A0B0C0D5E
:100760000E0F1010010200000010024000127A006B
:1007700000093D002DE9F84F040070D02078C04DED
:10078000C00749D06868C0F38100012807D06868B5
:10079000C0F38100022809D16868C00306D5286823
:1007A000800339D560680028E7D035E06068B0F58F
:1007B000803F0BD010B1B0F5A02F11D0286820F4E5
:1007C00080302860286820F4802002E0286840F407
:1007D00080302860606890B1FFF764FE06460AE04A
:1007E000286840F480202860F0E700BFFFF75AFE39
:1007F000801B642873D828688003F7D50CE0FFF7C6
:1008000051FE064605E000BFFFF74CFE801B642842
:10081000F0D828688003F7D420789A4E80074FF0EC
:1008200001094FF0000839D5686810F00C0F07D0A7
:100830006868C0F38100022809D16868C00306D443
:100840002868800714D52069012808D110E02069A4
:10085000B0B1C6F80090FFF725FE074605E00AE1B3
:10086000FFF720FEC01B0228C4D828688007F7D5F0
:100870002868616920F0F80040EAC10028600DE0B6
:10088000C6F80080FFF70EFE074604E0FFF70AFEF9
:10089000C01B022823D828688007F7D420780007D7
:1008A0002CD57948A169D9B1C0F80090FFF7FAFDBD
:1008B000074604E0FFF7F6FDC01B02280FD8686A60
:1008C0008007F7D571484FF4FA510068B0FBF1F09A
:1008D000009000BF0098411E0091FAD20EE080E027
:1008E000C0F80080FFF7DEFD074604E0FFF7DAFD01
:1008F000C01B022875D8686A8007F7D420784007A3
:1009000060D5E8690027C00008D4E86940F080504D
:10091000E861E869012700F0805000905C480168B8
:10092000C90513D40168834641F480710160FFF763
:10093000B9FD824606E000BFFFF7B4FDA0EB0A0058
:1009400064284ED8DBF80000C005F5D5E068012822
:100950000AD008B1052813D0286A20F001002862C7
:10096000286A20F0040002E0286A40F001002862B2
:10097000E06841F2883B98B1FFF794FD82460BE0B6
:10098000286A40F004002862EEE700BFFFF78AFD06
:10099000A0EB0A0159455AD8286A8007F6D50CE021
:1009A000FFF780FD824605E0FFF77CFDA0EB0A0122
:1009B00059454CD8286A8007F6D41FB1E86920F061
:1009C0008050E861E06988B36968C1F38101022958
:1009D00044D00228C6F8608004D0FFF763FD0446C7
:1009E00038E034E0FFF75EFD074604E0FFF75AFD0C
:1009F000C01B02282BD828688001F7D4206AB0F5E4
:100A0000803F05D16868A16820F400300843686021
:100A1000D4E908010843696821F474110843686047
:100A2000C6F86090FFF73EFD044606E025E000BFF3
:100A3000FFF738FD001B022809D828688001F7D588
:100A40001BE000BFFFF72EFD001B022802D9032088
:100A5000BDE8F88F28688001F4D40EE00128F7D0B3
:100A60006868226A00F48031914204D1616A00F41E
:100A70007010884201D00120EAE70020E8E700007A
:100A80000010024000004242800442421000002058
:100A90000070004010B5401EB0F1807F01D30120EE
:100AA00010BD4FF0E02460610F21601700F06DF879
:100AB0000020A06107202061002010BDFEE700009B
:100AC00070B586B000251B480095019502950395E9
:100AD000816941F004018161816901F0040104919F
:100AE000816941F0080181618069134E00F00800BE
:100AF000049000221E213046FFF7CEFC01240F484F
:100B00006946CDE9004030460294FFF7CDFB1E2038
:100B10008DE831000220039069463046FFF7C4FBA0
:100B2000002211460620FFF727FD0620FFF716FDDD
:100B300006B070BD00100240000801400000111016
:100B4000FEE7FEE770477047FFF7B2BC10B590B004
:100B500001200090000402240190CDE907404FF4E9
:100B6000E01009906846FFF705FE0F20CDE90A0462
:100B700000208021CDE90C010E9002210AA8FFF788
:100B80002DFD10B010BD7047FEE70907090E0028C3
:100B900004DB00F1E02080F80014704700F00F0043
:100BA00000F1E02080F8141D70470000FFF788FC7A
:100BB000FFF7CCFFFFF784FF10250226104CDFF86B
:100BC000449004274FF008084FF4FA7A207830B1A7
:100BD000012806D0022806D0032808D105E0658048
:100BE00005E0668003E0678001E0A4F80280618888
:100BF0004846FFF749FC5046FFF728FBE6E70000B0
:100C0000000000200008014000000000000000007B
:100C10000102030406070809380C00080000002040
:100C200014000000280100084C0C000814000020EB
:100C300064060000440100080000000001000000FC
:0C0C400010000000000000000024F40080
:04000005080000ED02
:00000001FF
